:020000040800F2
:10000000100C002029020008055D00086B51000853
:10001000015D0008F9080008A76200080000000060
:10002000000000000000000000000000375F000832
:10003000AD0F000800000000355F0008F95F000800
:10004000430200084302000843020008430200087C
:10005000430200084302000843020008430200086C
:10006000430200084302000843020008430200085C
:10007000430200084302000843020008430200084C
:10008000430200084302000843020008430200083C
:100090000D0A00084302000843020008430200085A
:1000A000430200084302000843020008430200081C
:1000B00043020008A5600008000000004302000899
:1000C0004302000800000000000000004302000896
:1000D0000000000043020008430200084302000839
:1000E0004302000843020008000000000000000076
:1000F0000000000000000000000000000000000000
:1001000000000000000000000000000000000000EF
:100110000000000000000000B5600008C560000895
:1001200000000000000000000000000000000000CF
:1001300000000000000000000000000000000000BF
:1001400043020008430200080000000043020008C8
:100150008D490008430200084302000843020008DA
:1001600043020008430200080000000000000000F5
:10017000000000000000000000000000000000007F
:10018000000000004302000800F002F800F03CF814
:100190000AA090E8000C82448344AAF10107DA45E2
:1001A00001D100F031F8AFF2090EBAE80F0013F0F8
:1001B000010F18BFFB1A43F001031847FC6C000045
:1001C0001C6D0000103A24BF78C878C1FAD85207D5
:1001D00024BF30C830C144BF04680C6070470000C1
:1001E0000023002400250026103A28BF78C1FBD840
:1001F000520728BF30C148BF0B6070471FB506F0DB
:100200002DFA1FBD10B510BD00F0CFF81146FFF755
:10021000F5FF06F08BF800F0EDF803B4FFF7F2FFFE
:1002200003BC00F0F5F80000094880470948004782
:10023000FEE7FEE7FEE7FEE7FEE7FEE7FEE7FEE796
:10024000FEE7FEE704480549054A064B70470000F3
:10025000916000088901000810060020100C0020A1
:10026000100800201008002053EA020C00F06980FA
:100270002DE9F04B4FF00006002B1FBFB3FA83F5BA
:1002800003FA05F424FA05F65E4012BF1643B2FAEB
:1002900082F502FA05F4C5F120051EBF22FA05FC1D
:1002A00044EA0C04203556EA044C4FEA144418BFC3
:1002B000641C4FF000084FF00009904271EB030CF2
:1002C00039D3002919BFB1FA81F701FA07F6B0FA5C
:1002D00080F700FA07F6C7F120071EBF20FA07FCD7
:1002E00046EA0C062037B6FBF4FCA7EB0507103FE7
:1002F00007F01F0BCBF120060CFA0BFB2CFA06F6CD
:1003000044BFB3460026202FA4BF5E464FF0000B2B
:100310005BEA060C08BF4FF0010B19EB0B09ABFBB6
:10032000027C48EB0608C01B06FB02CC0BFB03CC8F
:1003300071EB0C01C1E70B46024641464846BDE859
:10034000F08B13B54FF000004FF00001AFF30080C9
:10035000BDE81C4070474FF0000200B513469446BC
:100360009646203922BFA0E80C50A0E80C50B1F10D
:100370002001BFF4F7AF090728BFA0E80C5048BF21
:100380000CC05DF804EB890028BF40F8042B08BFBF
:10039000704748BF20F8022B11F0804F18BF00F8BB
:1003A000012B7047704770477047754600F02CF876
:1003B000AE4605006946534620F00700854618B052
:1003C00020B5FFF73FFFBDE820404FF000064FF09B
:1003D00000074FF000084FF0000B21F00701AC467A
:1003E000ACE8C009ACE8C009ACE8C009ACE8C00999
:1003F0008D46704710B50446AFF300802046BDE837
:100400001040FFF70ABF000000487047AC0500200D
:1004100001491820ABBEFEE726000200704700002D
:10042000AC4890ED000AB3EE001AC0EE010AAA48EB
:10043000408800EE100AB8EE400AA64890ED001A77
:1004400030EE010A30EE600A80ED000A90ED000AFD
:10045000F3EE000A80EE201AA04880ED001AA048B2
:1004600090ED000AB3EE001AC0EE010A9D488088A4
:1004700000EE100AB8EE400A994890ED001A30EEEE
:10048000010A30EE600A80ED000A90ED000AF3EEFA
:10049000000A80EE201A944880ED001A934890EDEF
:1004A000000AB3EE001AC0EE010A8B48008800EE85
:1004B000100AB8EE400A8D4890ED001A30EE010A9D
:1004C00030EE600A80ED000A90ED000AF3EE000ABB
:1004D00080EE201A864880ED001A864890ED000ACA
:1004E000B3EE001AC0EE010A7E4800887D494988B3
:1004F000401A00EE100AB8EEC00A7E4890ED001ACD
:1005000030EE010A30EE600A80ED000A90ED000A3C
:10051000F3EE000A80EE201A774880ED001A774843
:1005200090ED000AB3EE001AC0EE010A6D48C088D3
:100530006C494988401A00EE100AB8EEC00A6F48AC
:1005400090ED001A30EE010A30EE600A80ED000AEC
:1005500090ED000AF3EE000A80EE201A684880ED64
:10056000001A5E4890ED000AF7EE000A20EE200A1D
:10057000DFED640A20EE200AF3EE000A20EE200AE6
:10058000DFED610A80EE201A604880ED001A5648BF
:1005900090ED000AF7EE000A20EE200ADFED590A7E
:1005A00020EE200ADFED580A80EE201A584880ED30
:1005B000001A4F4890ED000AF7EE000A20EE200ADC
:1005C000DFED500A20EE200AF3EE000A20EE200AAA
:1005D000DFED4D0A80EE201A4E4880ED001A4648A5
:1005E00090ED000AF7EE000A20EE200ADFED450A42
:1005F00020EE200ADFED440A80EE201A464880ED06
:10060000001A3F4890ED000AF7EE000A20EE200A9B
:10061000DFED3C0A20EE200ADFED3B0A80EE201AD7
:100620003E4880ED001A3A48D0ED000A9FED3C1A92
:1006300080EE810AF3EE040A80EE201A394880ED3C
:10064000001A3548D0ED000A9FED351A80EE810A78
:10065000F3EE040A80EE201A334880ED001A2F488A
:10066000D0ED000A9FED2E1A80EE810AF3EE040A07
:1006700080EE201A2D4880ED001A264890ED000AE1
:100680002948D0ED000A20EE200A294880ED000A12
:100690001E4890ED000A2548D0ED000A20EE200A01
:1006A000244880ED000A90ED000A2148D0ED000AB0
:1006B00030EE200A204880ED000A90ED000AB5EEE9
:1006C000C00AF1EE10FA03D89FED1C0A80ED000A73
:1006D000704700006000002024000020740000200B
:1006E000640000201C00002078000020680000202A
:1006F0007C0000206C0000208000002070000020A2
:10070000840000203333534000008045280000203F
:100710002C00002034000020380000204000002081
:100720006F12033B300000203C00002044000020FA
:10073000540000205800002050000020000000005D
:1007400070B505466C6A206C00F05000D0B9206C82
:1007500040F4007020642068C06800F4406068B90C
:10076000607E58B9206C20F480702064206C00F406
:10077000805018B9206C40F001002064204600F041
:10078000C5FE03E0A06B016B2846884770BD70B5BD
:1007900005466C6A206C40F040002064606C40F0BC
:1007A00004006064204600F0B3FE70BD70B50446DE
:1007B000656A284600F0ABFE70BD70B504460025A2
:1007C0002068806800F00300012806D120680068D6
:1007D00000F0010008B1012000E0002000283BD01B
:1007E0002068806800F00D00012800D100E00020A2
:1007F00050B100BF2068806840F002002168886026
:1008000003202168086009E0206C40F0100020649B
:10081000606C40F001006064012070BD01F026FFB3
:10082000054613E001F022FF401B02280ED9206884
:10083000806800F0010048B1206C40F01000206496
:10084000606C40F0010060640120E6E72068806889
:1008500000F001000028E5D10020DEE770B5044675
:1008600000252068806800F00300012806D1206878
:10087000006800F0010008B1012000E0002080BB0A
:10088000206880681B49084008B9012000E000206A
:1008900048B9206C40F010002064606C40F001000A
:1008A0006064012070BD2068806840F0010021680C
:1008B000886001F0DBFE054614E001F0D7FE401B26
:1008C00002280FD92068006800F0010050B9206CA0
:1008D00040F010002064606C40F001006064012072
:1008E000E0E705E02068006800F001000028E4D09F
:1008F0000020D7E73F00008000BFFEE710B5FBEE09
:10090000022AB2EE042ADFED281A9FED271ADFED46
:10091000270AB6EE000A0121254805F078FEFBEE15
:10092000022AB2EE042ADFED201A9FED1F1ADFED36
:100930001F0AB6EE000A01211E4805F068FEFBEE14
:10094000022AB2EE042ADFED181A9FED171ADFED26
:100950001A0A9FED1A0A0121194805F058FEDFED29
:10096000122A9FED182ADFED101A9FED0F1ADFED06
:10097000160A9FED160A0121154805F048FEB3EE50
:10098000060A0B4880ED0A0AB2EE000A094880ED1B
:100990000A0AB1EE040A0A4880ED0A0A9FED0D0A20
:1009A0000D4880ED000A10BD00000000CDCC4C3D8C
:1009B00064040020A00400206F12033C0AD7233DEA
:1009C000DC0400209A99D93F6F12033A0AD7A33B5F
:1009D000180500206666663FB000002000B58BB0A9
:1009E000012009900020079001200890002001902C
:1009F0000290039004900690059001A9024801F02E
:100A0000D7F80BB000BD00002802002010B5024846
:100A100001F01EFA10BD00002802002010B52DEDD7
:100A2000028BFE48008800EE100AB8EE400AFC482F
:100A300080ED000A90ED000ADFEDFA0AB4EEE00A5C
:100A4000F1EE10FA07DB90ED000ADFEDF70A80EE19
:100A5000201A80ED001AF24890ED000ADFEDF30A4B
:100A6000B4EEE00AF1EE10FA04DB9FEDF00A80ED3F
:100A7000000A09E0E9480088401F00EE100AB8EEBD
:100A8000C00AE74880ED000AE54890ED000AB5EE9F
:100A9000C00AF1EE10FA09D1E54890ED000AF1EE36
:100AA000040A30EE600ADE4880ED000AE148007872
:100AB000032801D1E0490870DE480078022810D1EF
:100AC0000321DE4802F086F90C21DC4802F082F9AD
:100AD0000020D94908700120D94908700020D9495F
:100AE0000880D94890ED000AF3EE010AB4EEE00A5E
:100AF000F1EE10FA08D390ED000AF3EE0E0AB4EE10
:100B0000E00AF1EE10FA11DD0321CC4802F062F99F
:100B10000C21CA4802F05EF90120C9490870002082
:100B2000C84908800920C449087068E0C2480078B4
:100B3000032864D1C44890ED000AF3EE0D0AB4EE28
:100B4000E00AF1EE10FA5AD290ED000AF3EE020A32
:100B5000B4EEE00AF1EE10FA51DDB9480078E8B3DE
:100B6000B8480088401CB749088008460088B0F59E
:100B70007A7F37DDB1EE040AB44880ED000AB4484C
:100B800005F054FDB34805F051FDB34805F04EFDA6
:100B9000B24805F04BFDB24890ED000AB148D0EDE7
:100BA000000A20EE200AA848D0ED000A80EE201AA4
:100BB000F0EE418AA948C0ED0B8A03219F4802F05C
:100BC000E9F80C219D4802F0E5F800209C490870E6
:100BD0009C490880A4490870032000E002E096497F
:100BE000087000BF9F4890ED000AF2EE040AB4EED0
:100BF000E00AF1EE10FA02DD01209B4908709348EB
:100C000090ED000A8648D0ED000AB4EEE00AF1EE5D
:100C100010FA09D28D4890ED000ADFED940A30EE0B
:100C2000200A80ED000A0FE0884890ED000A7C4819
:100C3000D0ED000AB4EEE00AF1EE10FA04DD90ED1A
:100C4000000A824880ED000A894890ED000A854834
:100C500080ED000A874890ED000A7B4880ED000A8D
:100C6000854890ED000A854880ED000A844890EDA3
:100C7000000A844880ED000A7A4890ED000A754821
:100C800005F022FC774890ED000A734805F01CFC43
:100C90006E4890ED000A6E4880ED0A0A7A4890EDA1
:100CA000000A6B4805F010FC694890ED0B8A694812
:100CB00090ED0B0AB4EEC80AF1EE10FA07D290EDEF
:100CC0000B0AB0EE408A624880ED0B8A18E0664855
:100CD000007878B1604890ED0B0AB4EEC80AF1EEE6
:100CE00010FA07DD90ED0B0AB0EE408A584880ED0F
:100CF0000B8A05E0574880ED0B8A574880ED0B8A38
:100D0000564880ED0A8A5F4890ED000A534805F086
:100D1000DBFB524890ED0B0A5C4880ED000A90ED39
:100D2000000AF7EE080AB4EEE00AF1EE10FA04DD6C
:100D3000B7EE080A80ED000A0DE0544890ED000A75
:100D4000DFED530AB4EEE00AF1EE10FA03D29FEDA4
:100D5000500A80ED000A4D4890ED000ADFED4D0A83
:100D6000B4EEE00AF1EE10FA0FDD9FED4A0A4A48B0
:100D700080ED000A454890ED000ADFED480A80EE5C
:100D8000801A474880ED001A0AE0404890ED000ABA
:100D9000414880ED000A9FED3F0A414880ED000A7E
:100DA0003D48D0ED000A9FED3F0A9FED3E1A01EE4F
:100DB000600ABCEEC00A10EE100A20490968C8613A
:100DC0003548D0ED000A9FED370A9FED361A01EE47
:100DD000200ABCEEC00A10EE100A184909684862E1
:100DE0002F48D0ED000A9FED2F0A9FED2E1A01EE3D
:100DF000600ABCEEC00A10EE100A10490968886249
:100E00002748D0ED000A9FED270A9FED261A01EE34
:100E1000200ABCEEC00A10EE100A45E0D8000020FF
:100E2000A800002000002046000080430000F0429F
:100E3000BC000020DC000020DD000020500200206B
:100E4000A0000020A200002098000020AC0000209C
:100E5000DC04002064040020A00400201805002009
:100E6000A400002090000020A10000200AD7233C0D
:100E70003400002028000020300000209C000020CA
:100E80003C0000209400002050000020B000002012
:100E9000CDCC4C3E6666663FB4000020295C4F3FD7
:100EA000B80000200000484626490968C862264864
:100EB00090ED000A20EE000ADFED240A80EE201AF1
:100EC0009FED230A21EE000ABDEEC00AB8EEC00A6B
:100ED000204880ED000A90ED000AB5EEC00AF1EE60
:100EE00010FA03D29FED1C0A80ED000A194890ED1C
:100EF000000ADFED170AB4EEE00AF1EE10FA03DDA6
:100F00009FED130A80ED000A144890ED000AF6EEFA
:100F1000000AB4EEE00AF1EE10FA02DB01201049FB
:100F200008600E4890ED000AFEEE000AB4EEE00AFA
:100F3000F1EE10FA02D8002009490860BDEC028BDE
:100F400010BD0000500200203400002000401C446E
:100F50000000C8428C000020000000003C0000207F
:100F6000C0000020054A0168891A1422B1FBF2F181
:100F70008900016401490839C163704708000240D3
:100F800030B590F840500124AC40C56B6C600468EB
:100F900063604468102C04D10468A2600468E160B6
:100FA00003E00468A1600468E26030BD704772B677
:100FB00000BFFEE770B594B002460B4600241868E7
:100FC00000B100BF1068B0F1A04F02D146480090B8
:100FD00002E04FF0A0400090009810B9012014B03A
:100FE00070BD00BF92F83C00012801D10220F6E755
:100FF000012082F83C0000BF10688068C0F38000C8
:10100000002864D100988068C0F3800000285ED179
:101010003649186890B392F830005D6845EA403070
:101020008D6825F46045284388601068806800F06A
:101030000300012806D11068006800F0010008B123
:10104000012000E00020002846D10098806800F0D0
:101050000300012806D10098006800F0010008B1E3
:10106000012000E0002088BB9D68186828438D6837
:1010700040F61F76B543284388602DE0FFE7886877
:1010800020F4604088601068806800F00300012848
:1010900006D11068006800F0010008B1012000E0EE
:1010A000002098B90098806800F00300012806D15C
:1010B0000098006800F0010008B1012000E0002065
:1010C00020B9886840F61F75A843886004E0106C5A
:1010D00040F020001064012400BF002082F83C0092
:1010E00000BF20467BE700000001005000030050D5
:1010F000F0B595B00246002500200090C868012890
:1011000000D000E000BF00BF92F83C00012802D1EF
:10111000022015B0F0BD012082F83C0000BF10682D
:101120008068C0F38000002879D14868052812D271
:101130001068006B0E7906EB460677001F26BE404E
:10114000B0430F7907EB47077F000E68BE4030437E
:101150001668306343E048680A2814D21068406B70
:101160000E79761F06EB460677001F26BE40B04379
:101170000F797F1F07EB47077F000E68BE403043A3
:10118000166870632BE048680F2814D21068806BD3
:101190000E790A3E06EB460677001F26BE40B04396
:1011A0000F790A3F07EB47077F000E68BE403043C8
:1011B0001668B06313E01068C06B0E790F3E06EB43
:1011C000460677001F26BE40B0430F790F3F07EB5E
:1011D00047077F000E68BE4030431668F063106812
:1011E000806800F00C0008B1012000E00020002819
:1011F00070D108680A2813D3106880690E780A3EF7
:1012000006EB46070726BE40B0430F780A3F07EBC0
:1012100047078E68BE4030431668B06110E05FE15A
:10122000106840690E7806EB46070726BE40B043BB
:101230000F7807EB47078E68BE4030431668706131
:1012400048691668F668C6F3C106760000FA06F427
:101250000869012806D0022812D003281ED00428CD
:1012600039D129E01068006EA34E30400E784FF05F
:10127000004747EA8666264330431668306663E0D7
:101280001068406E9C4E30400E784FF0004747EAA1
:101290008666264330431668706655E01068806E97
:1012A000954E30400E784FF0004747EA8666264359
:1012B00030431668B06647E01068C06E8E4E30400E
:1012C0000E784FF0004747EA86662643304316689B
:1012D000F06639E039E01068006E00F0F8400E78F2
:1012E000B0EB866F05D11068006E20F000401668E4
:1012F00030661068406E00F0F8400E78B0EB866FF4
:1013000005D11068406E20F00040166870661068C5
:10131000806E00F0F8400E78B0EB866F05D1106853
:10132000806E20F000401668B0661068C06E00F055
:10133000F8400E78B0EB866F05D11068C06E20F0D3
:1013400000401668F06600BF00BF1068806800F0BB
:101350000300012806D11068006800F0010008B100
:10136000012000E0002000287ED1C86801280AD0B2
:101370001068D0F8B0000F780126BE40B043166860
:10138000C6F8B00032E01068D0F8B0000F7801263F
:10139000BE4030431668C6F8B00008680A2813D368
:1013A000106886690878093800EB40070720B840C4
:1013B00026EA00000E78093E06EB46068F68B74025
:1013C00038431668B06111E0106840690E78761CE9
:1013D00006EB46070726BE40B0430F787F1C07EB9D
:1013E00047078E68BE40304316687061434B0868FB
:1013F000102803D1986800F4000070B10868112823
:1014000003D1986800F0807038B1086812286CD158
:10141000986800F48000002867D11068B0F1A04FF0
:1014200002D13748019002E04FF0A04001901068CF
:10143000806800F00300012806D11068006800F001
:10144000010008B1012000E0002070BB019880B1CC
:101450000198806800F00300012808D10198006815
:1014600000F0010018B100E033E0012000E00020AE
:10147000D8B90868102819D11068B0F1A04F15D15B
:10148000986840F4000098601E4800681E4EB0FB4B
:10149000F6F000EB80004000009002E00098401E53
:1014A000009000980028F9D11FE013E00868112887
:1014B00008D11068B0F1A04F04D1986840F0807056
:1014C000986012E0086812280FD1986840F48000F4
:1014D00098600AE0106C40F020001064012504E0E0
:1014E000106C40F020001064012500BF002082F83D
:1014F0003C0000BF28460CE600F0FF8300030050CC
:10150000000100501800002040420F007047704753
:1015100070470000F0B595B0044600260025002075
:10152000009014B9012015B0F0BD206918B1202039
:10153000005D00B100BF206C00F01000002853D106
:10154000206C98BB002060640021E164A06484F8F2
:101550003C00204600F008F92068806800F08050C8
:1015600020BB2046FFF729F90646206C00F010004A
:10157000E0B9DEB9206C20F4885040F0020020640D
:101580002068806820F0405021688860206880686A
:1015900040F08050216888606E4800686E49B0FB5A
:1015A000F1F000EB80004000009003E005E00098BF
:1015B000401E009000980028F9D12068806800F053
:1015C000805030B12068806800F00050B0F1005FBA
:1015D0000AD1206C20F0020040F010002064606C02
:1015E00040F0010060640126206C00F0100000282B
:1015F00073D1002EFCD120688068C0F380000028E1
:10160000F6D1206C20F4807040F002002064534F2B
:101610002068B0F1A04F02D15148019002E04FF094
:10162000A04001902068806800F00300012806D1E6
:101630002068006800F0010008B1012000E00020EF
:10164000B0B9019870B10198806800F003000128DA
:1016500006D10198006800F0010008B1012000E007
:10166000002028B9B86820F4403061680843B860A9
:10167000606B012802D04FF4805100E00021607EB1
:1016800041EA4030E1680843A1680843054320204F
:10169000005D012813D1607E38B9A08C401E4FF444
:1016A000803141EA4040054309E0206C20F002000F
:1016B00040F020002064606C40F001006064A06A8B
:1016C000012803D0D4E90A01084305432068806853
:1016D00000F00C0010B1012001E032E0002068B9F8
:1016E0002068C06844F2020188432168C860207EF7
:1016F000810394F8300041EA400005432068C06847
:101700001849084028432168C8602069012809D188
:101710002068006B20F00F00E169491E0843216832
:10172000086305E02068006B20F00F002168086363
:1017300000206064206C20F0020040F00100206472
:1017400006E0206C20F0020040F01000206401262A
:101750003046E8E61800002040420F000003005029
:101760000001005007C0F0FF10B586B004461421F8
:1017700001A8FEF7F0FD2068B0F1A04F4BD14F4813
:101780000068401C4D4908600846006801280DD1DA
:1017900000BF4B48406940F08050494948610846C5
:1017A000406900F08050009000BF00BF00BF444877
:1017B000406940F40030424948610846406900F4FD
:1017C0000030009000BF00BF0F2001900320029066
:1017D0000020039001A94FF0904000F05FFE3948CF
:1017E0003949086000204860002137488160802125
:1017F000C1604900016189004161202181610902C4
:10180000C16100F0BEFD08B1FFF7D1FB00BF2E485B
:10181000A063446250E02D49206888424CD127489B
:101820000068401C254908600846006801280DD161
:1018300000BF2348406940F0805021494861084674
:10184000406900F08050009000BF00BF00BF1C48FE
:10185000406940F400301A4948610846406900F484
:101860000030009000BF00BF3020019003200290A4
:101870000020039001A94FF0904000F00FFE1148A6
:10188000143013490860002048600021104881602E
:101890008021C1604900016189004161202181618D
:1018A0000902C16100F06DFD08B1FFF780FB00BFC8
:1018B0000748A063446200BF06B010BD08000020C6
:1018C0000010024008000240A0010020000100506A
:1018D000E40100202DE9F04104460D46164600279C
:1018E00020688068C0F3800000287DD100BF94F894
:1018F0003C00012802D10220BDE8F081012084F8DB
:101900003C0000BF4848006800F01F0000286CD170
:101910002046FEF7A3FF0746002F76D1206C40F645
:101920000161884340F4807020643F48006800F003
:101930001F0018B12068B0F1A04F0FD1206C20F427
:10194000801020642068C06800F0007000B3206C34
:1019500020F4005040F48050206419E0206C40F4E2
:10196000801020642068B0F1A04F03D02F49206878
:10197000884205D14FF0A040C06800F0007000E040
:10198000002028B1206C20F4005040F480502064E6
:10199000206C00F48050B0F5805F04D1606C20F0C2
:1019A0000600606401E00020606400BF002084F84D
:1019B0003C0000BF1E48A16B88621E48A16BC86234
:1019C0001D48A16B08631C202168086020684068DE
:1019D00040F01000216848602068C06840F00100B5
:1019E0002168C860226802E01AE013E00DE002F10D
:1019F000400133462A46A06B00F0EEFC2068806868
:101A000040F00400216888600BE000BF002084F8EB
:101A10003C0006E0012700BF002084F83C0000E005
:101A20000227384668E70000080300500001005014
:101A300041070008AD0700088F07000810B50246EF
:101A400092F82030012B01D0022B06D1106840699A
:101A5000084314686061002010BD506A40F4802083
:101A600050620120F8E7F0B504460D461E4694F892
:101A7000207020688368A86800B900E000BF012FCB
:101A800001D0022F7DD103F0806030B903F00060F7
:101A900018B903F0805000287ED0C3F30161012003
:101AA00088403060A86860B9B5F800C0E86840EACE
:101AB0004C5C206800F5C07000EB0110C0F800C05D
:101AC0000FE0D5E901C040EACC00D5F80CC040EAEF
:101AD0000C00D4F800C00CF5C07C0CEB011CCCF859
:101AE0000000D5F810C0206800F5C07000EB0110B0
:101AF000C0F804C0287D01280ED1206800F5C07010
:101B000000EB0110406840F4807C206800F5C07054
:101B100000EB0110C0F804C0D079000692F806C0AE
:101B200040EA0C4092F805C040EA0C2092F804C04C
:101B300040EA0C00D4F800C00CF5C07C0CEB011C92
:101B4000CCF80C00D078000692F802C040EA0C40B5
:101B500092F801C040EA0C2092F800C040EA0C0064
:101B6000D4F800C00CF5C07C0CEB011CCCF80800CC
:101B7000206800F5C07000EB0110006840F0010C17
:101B800001E00FE008E0206800F5C07000EB0110F4
:101B9000C0F800C00020F0BD606A40F40010606230
:101BA0000120F8E7606A40F4802060620120F2E7DB
:101BB000F0B504460A46216894F82050012D01D062
:101BC000022D74D1D1F8000240F00100C1F80002EA
:101BD000107D00F01F06012000FA06F3D1F81C0268
:101BE0009843C1F81C02D069C8B9D1F80C029843D7
:101BF000C1F80C02908880B2968940EA064601F549
:101C00001070576940F83760108880B2168940EA32
:101C1000064601F51070576900EBC7004660D069B1
:101C2000012819D1D1F80C021843C1F80C02908890
:101C300080B2168840EA064601F51070576940F8F0
:101C40003760908980B2168940EA064601F5107027
:101C5000576900EBC7004660906928B9D1F80402C3
:101C60009843C1F8040204E0D1F804021843C1F813
:101C70000402106928B9D1F814029843C1F814027B
:101C800004E0D1F814021843C1F81402106A0128C4
:101C900004D1D1F81C021843C1F81C02D1F800028B
:101CA00020F00100C1F800020020F0BDFFE7606AEB
:101CB00040F4802060620120F7E7704770B5044669
:101CC00094F82050012D01D0022D7DD151B920680A
:101CD000C06800F0030080B9606A40F400106062E0
:101CE000012070BD2068006900F0030028B9606A17
:101CF00040F4001060620120F3E7206800F5D8701E
:101D000000EB0110006800F004009060906840B99A
:101D1000206800F5D87000EB01100068400D1060DD
:101D200007E0206800F5D87000EB01100068C008DB
:101D30005060206800F5D87000EB0110006800F0DA
:101D40000200D060206800F5D87000EB01104068F8
:101D500000F00F00082802D30820106108E0206876
:101D600000F5D87000EB0110406800F00F00106122
:101D7000206800F5D87000EB0110406800F47F4047
:101D8000000A9061206800F5D87000EB01104068EF
:101D9000000C5061206800F5D87000EB01108068DD
:101DA0001870206800F5D87000EB0110806800F40E
:101DB0007F40000A5870206800F5D87000EB0110D1
:101DC000806800F47F0000E03CE0000C9870206820
:101DD00000F5D87000EB01108068000ED870206804
:101DE00000F5D87000EB0110C0681871206800F58C
:101DF000D87000EB0110C06800F47F40000A5871F1
:101E0000206800F5D87000EB0110C06800F47F0076
:101E1000000C9871206800F5D87000EB0110C068C4
:101E2000000ED87131B92068C06840F020002668E3
:101E3000F06005E02068006940F02000266830610D
:101E400000204EE7606A40F480206062012048E78D
:101E50002DE9F05F04460025206846692068D0F827
:101E60000490206887682068D0F80CA02068D0F81B
:101E700010B02068D0F8188006F00100002855D076
:101E800007F00100C0B101202168886007F002005E
:101E900018B1204600F06FFA0EE007F0040010B110
:101EA00045F4006508E007F0080010B145F48055DE
:101EB00002E0204600F05EFA07F48070C8B14FF4EB
:101EC00080702168886007F4007018B1204600F027
:101ED00054FA0EE007F4806010B145F4005508E0B4
:101EE00007F4006010B145F4804502E0204600F0A0
:101EF00043FA07F48030C8B14FF48030216888601D
:101F000007F4003018B1204600F039FA0EE007F46B
:101F1000802010B145F4004508E007F4002010B11E
:101F200045F4803502E0204600F028FA06F008006B
:101F300038B10AF0100020B145F400751020216876
:101F4000C86006F0040040B10AF0080028B108207B
:101F50002168C860204600F0A3F906F0020038B1FD
:101F60002068C06800F0030010B1204600F09AF924
:101F700006F0400038B10BF0100020B145F4806548
:101F800010202168086106F0200040B10BF0080025
:101F900028B1082021680861204600F0B9F906F050
:101FA000100038B12068006900F0030010B120462D
:101FB00000F0AFF906F4003040B109F0100028B18C
:101FC000102021684860204600F0A4F906F4803013
:101FD00040B109F0080028B1082021684860204677
:101FE00000F0CEF906F4004088B309F0040078B39D
:101FF00006F4807020B108F0010008B145F0010539
:1020000006F4007020B108F0020008B145F00205A6
:1020100006F4806020B108F0040008B145F0040522
:1020200006F40060A0B108F0700088B108F07000FC
:10203000402817D006DC10280BD020280CD03028E0
:1020400019D10CE0502810D0602814D110E01DE008
:1020500019E045F008050FE045F010050CE045F0EB
:10206000200509E045F0400506E045F0800503E065
:1020700045F4807500E000BF00BF2068806920F053
:102080007000216888610420216848602DB1606A71
:10209000284360622046FFF710FEBDE8F09F70B550
:1020A00004460CB9012070BD94F8200010B92046F8
:1020B00000F0B0F82068006840F001002168086076
:1020C00000F0D4FA05460DE000F0D0FA401B0A28D3
:1020D00008D9606A40F400306062052084F820006E
:1020E0000120E0E72068406800F001000028EBD004
:1020F0002068006820F002002168086000F0B6FA4D
:1021000005460DE000F0B2FA401B0A2808D9606AC3
:1021100040F400306062052084F820000120C2E70E
:102120002068406800F002000028EBD1207E0128E2
:1021300006D12068006840F080002168086005E052
:102140002068006820F0800021680860607E012817
:1021500006D12068006840F040002168086005E072
:102160002068006820F0400021680860A07E0128F7
:1021700006D12068006840F020002168086005E072
:102180002068006820F0200021680860E07E0128B7
:1021900006D12068006820F010002168086005E082
:1021A0002068006840F0100021680860207F012846
:1021B00006D12068006840F008002168086005E04A
:1021C0002068006820F0080021680860607F01280E
:1021D00006D12068006840F004002168086005E02E
:1021E0002068006820F0040021680860D4E902013A
:1021F000084321690843616908436168491E08432F
:102200002168C86100206062012084F8200000205D
:1022100049E7000010B586B00446142101A8FEF776
:102220009AF81C492068884231D100BF1A48C06919
:1022300040F000701849C8610846C06900F000709D
:10224000009000BF00BF00BF0846406940F48020F6
:1022500048610846406900F48020009000BF00BF3C
:102260004FF4407001900220029000200390032060
:1022700004900920059001A9084800F00FF90022F8
:102280001146142001F090F8142001F07DF806B0FA
:1022900010BD00000064004000100240000400482F
:1022A0007047000010B50446134B144A0021204625
:1022B000FFF704FD11480068A0F20230C8B91048C9
:1022C0000068401C0E4908600B4840780A490978AC
:1022D00040EA01200B4908800748C0780649897800
:1022E00040EA01200849088003480079074908703E
:1022F00000BF00BF10BD0000C80000205405002032
:10230000C4000020DA000020D8000020DC000020FB
:1023100070477047704770B5044694F82000012854
:1023200022D1022084F820002068006820F00100FB
:102330002168086000F09AF905460DE000F096F972
:10234000401B0A2808D9606A40F40030606205200A
:1023500084F82000012070BD2068406800F0010072
:102360000028EBD16062F6E7606A40F4002060620A
:102370000120F0E77047704770477047704770471B
:10238000704770B5044600250CB9012070BD0220CD
:1023900084F821002068056843F6F0708543D4E98D
:1023A00001010843E1680843216908436169084362
:1023B000A1690843E1690843054320680560204698
:1023C000FEF7D0FD0020A063012084F8210000204A
:1023D00084F8200000BFD9E72DE9F04104460D46FE
:1023E00016461F464FF0000800BF94F82000012851
:1023F00002D10220BDE8F081012084F8200000BF56
:1024000094F8210001282CD1022084F8210000201A
:10241000A0632068006820F00100216808603B4646
:10242000324629462046FEF7ABFDE06A30B120680F
:10243000006840F00E00216808600BE0206800682A
:1024400040F00A00216808602068006820F004005D
:10245000216808602068006840F001002168086079
:1024600006E000BF002084F8200000BF4FF0020803
:102470004046BFE770B5044600F0F8F8064625462A
:10248000681C10B104480078054400BF00F0EEF865
:10249000801BA842FAD370BD1400002078B5034613
:1024A0000A460021C0E001268E40156805EA0604B0
:1024B000002C73D0157905F00305012D04D0157992
:1024C00005F00305022D13D198684E000325B54091
:1024D000A8434E00D568B540284398605868012548
:1024E0008D40A8431579C5F300158D4028435860E9
:1024F000157905F00305032D09D0D8684E00032592
:10250000B540A8434E009568B5402843D86015797A
:1025100005F00305022D13D1CE0803F1200555F86F
:1025200026004D07EE0E0F25B540A8434E07F60EC8
:102530001569B5402843CE0803F1200545F826006B
:1025400018684E000325B540A843157905F003052A
:102550004E00B54028431860556805F44035002DFD
:1025600061D000BF334DAD6945F00105314EB56115
:102570003546AD6905F00105009500BF00BF4FEA83
:10258000B6358E0855F826008D072E0F0F25B5405D
:10259000A843B3F1904F02D1002510E043E0264D4F
:1025A000AB4201D101250AE0244DAB4201D1022505
:1025B00005E0234DAB4201D1032500E005258E0740
:1025C000360FB54028431F4D8E0845F826001E4D96
:1025D0002868A043556805F4801505B120431A4DBD
:1025E00028602D1D2868A043556805F4001505B125
:1025F0002043154D2D1D2860134D2D1F2868A04325
:10260000556805F4003505B120430F4D2D1F286096
:102610002D1F2868A043556805F4803505B1204377
:10262000094D083D2860491C1568CD40002D7FF4F8
:102630003AAF78BD0010024000040048000800488E
:10264000000C0048080001400804014010B5426930
:1026500021EA020302EA010443EA0443836110BD54
:102660000AB1816100E081627047000001480068A2
:10267000704700000C00002030B503460C4693F86C
:10268000C100022800D130BD00BF93F8C00001286E
:1026900001D10220F7E7012083F8C00000BF02202B
:1026A00083F8C1001868D0F88013012C06D0022CE2
:1026B0000FD0042C1AD0082C32D124E021F4E021D0
:1026C000106800F4E020014355681868C0F8BC5356
:1026D0002FE021F460114FF46015106805EAC00086
:1026E000014355681868C0F8C05322E021F0E0713A
:1026F0004FF0E075106805EA8010014355681868CE
:10270000C0F8C45315E021F060614FF060651068B7
:1027100005EA4020014355681868C0F8C85308E02E
:10272000072083F8C10000BF002083F8C00000BF6D
:1027300000BF00BF93F8C100072801D10120A2E724
:102740001868C0F88013012083F8C10000BF002082
:1027500083F8C00000BF00BF95E77047704770471F
:10276000704770477047704770477047024600BF18
:1027700092F8C000012801D102207047012082F8A0
:10278000C00000BF022082F8C100481C80B9106858
:10279000D0F8CC0320F002031068C0F8CC331068E6
:1027A000D0F8CC0340F001031068C0F8CC3318E037
:1027B0001068D0F8CC0340F002031068C0F8CC33A6
:1027C0001068D0F8CC0320F00C0008431368C3F85D
:1027D000CC031068D0F8CC0340F001031068C0F8B7
:1027E000CC33012082F8C1000020C6E730B5034693
:1027F0000C4693F8C100022800D130BD00BF93F809
:10280000C000012801D10220F7E7012083F8C000B1
:1028100000BF022083F8C100108800F4E0519088C6
:10282000C0F308000143108900F400700143108ACE
:1028300000F480400143908900F400400143908AF5
:10284000134D05EA00400143906900F00070014318
:10285000106A00F080400143D06900F0004001435D
:102860001868803000EBC410806B0A4D2840084384
:102870001D68803505EBC415A863012083F8C100ED
:1028800000BF002083F8C00000BF00BFB5E7000014
:102890000000FF010020003C704770477047704700
:1028A0007047704770B505460C46FF2C03D128468B
:1028B00002F0B4F809E0052C03D1284602F047F9EC
:1028C00003E02146284602F048FA70BDF8B50446F8
:1028D0000CB90120F8BD0220C43404F8030C002018
:1028E00020606060A060E06020616061C43C207A8C
:1028F00000F0010008B33549206888420DD100BFBF
:102900003348806940F00050314988610846806949
:1029100000F00050009000BF00BF2068066826F459
:102920004046208A00F44040064326F44056A08AE0
:1029300000F44050064320680660204600F04AF844
:10294000207A00F0020048B12068066826F440763C
:10295000A08900F44070064320680660012084F8D6
:10296000C10000BF002084F8C00000BF002529E09E
:102970000021C5EBC50204F1180040F82210C5EB98
:10298000C50200EB82004160C5EBC50204F11800EE
:1029900000EB82008160C5EBC50204F1180000EB7A
:1029A0008200C160C5EBC50204F1180000EB820093
:1029B0000161C5EBC50204F1180000EB82008161E2
:1029C000681CC5B2052DD3D9002083E700740140EF
:1029D0000010024038B504460D492068884215D1E0
:1029E00000BF0C48806940F000500A4988610846E1
:1029F000806900F00050009000BF00BF002201215C
:102A0000442000F0D1FC442000F0BEFC38BD0000A2
:102A1000007401400010024010B586B00446142135
:102A200001A8FDF798FC1249206888421DD100BF1B
:102A30001048406940F400300E494861084640693A
:102A400000F40030009000BF00BF4FF470600190B0
:102A50000220029000200390032004900D20059096
:102A600001A94FF09040FFF719FD06B010BD00001E
:102A70000074014000100240704770477047704773
:102A800070B504460D46FFF7F1FD06460CE0681CE4
:102A900050B1FFF7EBFD801BA84200D825B90720F5
:102AA00084F8C100032070BD2068D0F88803C0F30B
:102AB00000400028EBD0012084F8C10000BF0020B6
:102AC00084F8C00000BF00BFEDE770477047704753
:102AD000704770B504460D46164694F8C1000228AA
:102AE00000D170BD022084F8C100052D04D131460B
:102AF000204601F0EAFF04E032462946204602F073
:102B000023FA012084F8C1000020EAE730B504462A
:102B100094F8C100022800D130BD00BF94F8C00075
:102B2000012801D10220F7E7012084F8C00000BF8E
:102B3000022084F8C100052928D1012A06D0022AE2
:102B400008D0042A0AD0082A10D10BE0186825689A
:102B5000E86114E018682568686210E01868256864
:102B6000A8620CE018682568E86208E0072084F88D
:102B7000C10000BF002084F8C00000BF00BF00BF3C
:102B800094F8C10007287DD10120C5E7012A06D0AD
:102B9000022A0BD0042A4CD0082A74D150E01D68B8
:102BA0002068803000EBC110C5619AE01D68206884
:102BB000803000EBC1104562586868B320688030EF
:102BC00000EBC110006820F440552068803000EB15
:102BD000C11005602068803000EBC11000685D689E
:102BE00028432568803505EBC11528605868B0F585
:102BF000005F06D19D682068803000EBC110C56180
:102C000016E05868B0F5405F12D19D6820688030AA
:102C100000EBC11085620BE02068803000EBC11032
:102C2000006820F440502568803505EBC115286008
:102C300057E01D682068803000EBC110856250E0CD
:102C40001D682068803000EBC110C562586888B3E9
:102C50002068803000EBC110006820F440452068F7
:102C6000803000EBC11005602068803000EBC1109F
:102C700000685D6840EA85052068803000EBC1107F
:102C8000056001E034E023E05868B0F5005F06D14C
:102C90009D682068803000EBC110C56117E058685E
:102CA000B0F5405F13D19D682068803000EBC11003
:102CB00085620CE0FFE72068803000EBC1100068FF
:102CC00020F440402568803505EBC115286008E0F8
:102CD000072084F8C10000BF002084F8C00000BFB6
:102CE00000BF00BF94F8C100072801D1012013E7FD
:102CF000012084F8C10000BF002084F8C00000BF9C
:102D000000BF09E7024600BF92F8C000012801D1C8
:102D100002207047012082F8C00000BF022082F824
:102D2000C10010680068084313681860012082F829
:102D3000C10000BF002082F8C00000BF00BFE8E76C
:102D40002DE9F04104460D4616461F4694F8C10091
:102D5000022801D1BDE8F08100BF94F8C00001282D
:102D600001D10220F6E7012084F8C00000BF022054
:102D700084F8C1003B4632462946204601F074FFE4
:102D8000012084F8C10000BF002084F8C00000BF0B
:102D900000BFDFE7024600BF92F8C000012801D162
:102DA00002207047012082F8C00000BF022082F894
:102DB000C1001068D0F8940308431368C3F8940363
:102DC000012082F8C10000BF002082F8C00000BFCF
:102DD00000BFE6E7024600BF92F8C000012801D11B
:102DE00002207047012082F8C00000BF022082F854
:102DF000C1001068D0F8980308431368C3F898031B
:102E0000012082F8C10000BF002082F8C00000BF8E
:102E100000BFE6E770B504460D46164694F8C100BB
:102E2000022800D170BD00BF94F8C000012801D174
:102E30000220F7E7012084F8C00000BF022084F8D8
:102E4000C100052D04D13146204601F052FE04E0B8
:102E500032462946204602F097F8C5EBC50204F138
:102E6000180000EB820031688160C5EBC50204F1F7
:102E7000180000EB82007168C160C5EBC50204F167
:102E8000180000EB8200B1680161C5EBC50204F1D6
:102E9000180000EB8200F1684161C5EBC50204F146
:102EA000180000EB8200316981612946204601F05B
:102EB00075FD012084F8C10000BF002084F8C00027
:102EC00000BF00BFAEE7024692F8410020282DD196
:102ED00000BF92F84000012801D102207047012074
:102EE00082F8400000BF242082F84100106800688A
:102EF00020F00100136818601068006820F480500A
:102F00001368186010680068084313681860106838
:102F1000006840F0010013681860202082F841002A
:102F200000BF002082F8400000BFD7E70220D5E7AD
:102F300010B502460B4692F8410020282AD100BF66
:102F400092F84000012801D1022010BD012082F832
:102F5000400000BF242082F841001068006820F083
:102F60000100146820601068016821F4706141EA72
:102F70000321106801601068006840F001001468C7
:102F80002060202082F8410000BF002082F840002D
:102F900000BFDAE70220D8E710B504460CB90120DB
:102FA00010BD94F8410028B9002084F84000204664
:102FB00000F02AF9242084F841002068006820F0FD
:102FC000010021680860606820F070602168086175
:102FD0002068806820F4004021688860E06801284B
:102FE00005D1A06840F400402168886004E0A06832
:102FF00040F4044021688860E068022806D1206817
:10300000406840F400602168486005E0206840683E
:1030100020F4006021684860206840681349084334
:10302000216848602068C06820F400402168C860BA
:10303000D4E904010843A16940EA01202168C8607D
:10304000D4E907010843216808602068006840F05F
:1030500001002168086000206064202084F841009D
:103060000020206384F8420000BF99E7008000023E
:103070002DE9FC5F0446894692469B46DDE90C78C3
:103080000E9E94F8410020287DD117B1B8F1000FB1
:1030900005D14FF4007060640120BDE8FC9F00BFC3
:1030A00094F84000012801D10220F6E7012084F8BD
:1030B000400000BFFFF7DAFA054619230122D103C9
:1030C0002046009502F05AF908B10120E5E72120D9
:1030D00084F84100402084F8420000206064676268
:1030E000A4F82A8060635B46524649462046CDE9F3
:1030F000006502F0E9F830B100BF002084F840001C
:1031000000BF0120C9E7608DFF280CD9FF20208572
:103110000020009094F828204FF080734946204604
:1031200002F010F90BE0608D20850020009094F8EB
:1031300028204FF000734946204602F003F900BFF3
:103140002A463146204602F08AF908B10120A4E758
:10315000606A007821688862606A401C6062608DE5
:10316000401E6085208D401E2085608D40B3208DDF
:1031700030BB3346002280212046009502F0FEF845
:1031800010B1012089E73AE0608DFF280CD9FF20BB
:1031900020850020009094F828204FF08073494645
:1031A000204602F0CFF80BE0608D208500200090D3
:1031B00094F828204FF000734946204602F0C2F8E8
:1031C000608D0028BCD12A463146204602F017F90E
:1031D00008B1012061E720202168C86120684068AB
:1031E0000849084021684860202084F841000020F8
:1031F00084F8420000BF84F8400000BF4DE7022081
:103200004BE7000000E800FE10B586B0044614212C
:1032100001A8FDF7A0F826492068884246D100BFE2
:103220002448406940F4003022494861084640691A
:1032300000F40030009000BF00BF00BF08464069A6
:1032400040F4802048610846406900F480200090E6
:1032500000BF00BF4FF400400190122002900120F7
:103260000390032004900420059001A94FF09040A2
:10327000FFF714F9802001901220029001200390A2
:10328000032004900420059001A90B48FFF706F9DC
:1032900000BF0848C06940F400100649C8610846EC
:1032A000C06900F40010009000BF00BF06B010BD60
:1032B0000054004000100240000400480348006829
:1032C0000349097808440149086070470C00002050
:1032D0001400002010B50848006840F010000649AE
:1032E0000860032000F09EF80F2000F007F800F0BF
:1032F0002BF8002010BD00000020024070B50446ED
:103300000E4800784FF47A71B1FBF0F00C4909686F
:10331000B1FBF0F5284601F04BF808B1012070BD73
:10332000102C07D200222146501E00F03DF805481F
:10333000046001E00120F2E70020F0E71400002023
:10334000180000201000002008B500BF0D4880695B
:1033500040F001000B4988610846806900F00100D7
:10336000009000BF00BF00BF0846C06940F0805019
:10337000C8610846C06900F08050009000BF00BFDF
:1033800008BD00000010024001460846002809DB85
:1033900000F01F0301229A4043099B0003F1E02340
:1033A000C3F8002100BF70472DE9F05F80460D464D
:1033B0001646002702F09EFF074639462A46334646
:1033C00001F00700C0F1070ABAF1040F02D94FF06B
:1033D000040A01E0C0F1070AD14600F1040ABAF17B
:1033E000070F02D24FF0000A01E0A0F1030AD44611
:1033F0004FF0010A0AFA09FAAAF1010A0AEA020AD6
:103400000AFA0CFA4FF0010B0BFA0CFBABF1010BB3
:103410000BEA030B4AEA0B042146404602F072FF16
:10342000BDE8F09F00BF00F00702064B19684FF699
:10343000FF031940044B0B4343EA0221014B19607F
:1034400000BF70470CED00E00000FA05F8B5044637
:10345000002600250027206800F48030B0F5803F6A
:1034600073D17A48C06900F0805070B900BF7748C6
:10347000C06940F080507549C8610846C06900F0D5
:103480008050009000BF00BF01277148006800F421
:103490008070B0B96E48006840F480706C49086074
:1034A000FFF7E4F8064606E0FFF7E0F8801B642823
:1034B00001D90320F8BD6648006800F48070002838
:1034C000F2D06248006A00F44075002D6BD0A088ED
:1034D00000F44070A84266D05C48006A20F4407551
:1034E0000121080490FAA0F0B0FA80F0594A02EBEA
:1034F0008000C0F800140020090491FAA1F1B1FA8B
:1035000081F102EB8101C1F800045048056205F029
:103510000100B8B3FFF7AAF8064608E0FFF7A6F8DF
:10352000801B41F28831884201D90320C2E7402044
:10353000022191FAA1F1B1FA81F108430121B1EB25
:10354000601F03D1414800681FE03BE0402002219A
:1035500091FAA1F1B1FA81F108430221B1EB601FA8
:1035600002D13A48006A10E04020022191FAA1F10C
:10357000B1FA81F108430421B1EB601F03D1334854
:10358000406802E00FE03148406A4021022292FA8E
:10359000A2F2B2FA82F2114301F01F02012191401E
:1035A00008400028BAD02948006A20F440706168B9
:1035B000084326490862012F04D10846C06920F05B
:1035C0008050C861207800F0010038B11F48006BBE
:1035D00020F00300A16808431C490863207800F02C
:1035E0002000202807D11948006B20F01000E16866
:1035F000084316490863207800F08000802807D12E
:103600001248C06A20F4F870216908430F49C86263
:10361000208800F48050B0F5805F07D10B48006B24
:1036200020F480706169084308490863208800F429
:103630008040B0F5804F07D10448006B20F48050E3
:10364000A169084301490863002033E700100240E4
:10365000007000400000424270B504460D4600264E
:103660000CB9012070BDA248006800F00700A84214
:103670000ED29F48006820F0070028439C4908604C
:103680000846006800F00700A84201D00120E9E7E1
:10369000207800F00200022807D19648406820F008
:1036A000F000A168084393494860207800F00100C9
:1036B00000287CD0606801283BD12020010391FACA
:1036C000A1F1B1FA81F108430121B1EB601F02D1F0
:1036D000884800681DE02020010391FAA1F1B1FAA9
:1036E00081F108430221B1EB601F02D18148006AD9
:1036F0000FE02020010391FAA1F1B1FA81F1084312
:103700000421B1EB601F02D17A48406801E079489A
:10371000406A20210A0392FAA2F2B2FA82F211431D
:1037200001F01F0201219140084000287CD10120B6
:1037300098E7606802283BD12020010591FAA1F1A9
:10374000B1FA81F108430121B1EB601F02D1694850
:1037500000681DE02020010591FAA1F1B1FA81F184
:1037600008430221B1EB601F02D16248006A0FE0FA
:103770002020010591FAA1F1B1FA81F10843042159
:10378000B1EB601F02D15B48406801E05948406AD4
:1037900020210A0592FAA2F2B2FA82F2114301F054
:1037A0001F02012191400840E8BB01205AE758E080
:1037B0002020022191FAA1F1B1FA81F108430121FF
:1037C000B1EB601F02D14B4800681DE020200221B0
:1037D00091FAA1F1B1FA81F108430221B1EB601F26
:1037E00002D14448006A0FE02020022191FAA1F1A1
:1037F000B1FA81F108430421B1EB601F02D13D48C9
:10380000406801E03B48406A2021022292FAA2F27D
:10381000B2FA82F2114301F01F02012191400840E7
:1038200008B901201EE7FFE73248406820F0030096
:10383000616808432F494860FEF718FF064608E014
:10384000FEF714FF801B41F28831884201D9032022
:1038500008E72848406800F00C006168B0EB810F71
:10386000EED12348006800F00700A8420ED9204896
:10387000006820F0070028431D49086008460068DA
:1038800000F00700A84201D00120EBE6207800F00C
:103890000400042807D11748406820F4E060E1687C
:1038A000084314494860207800F00800082808D12F
:1038B0001048406820F46050216940EAC1000D4979
:1038C000486000F01FF80B49496801F0F001F02250
:1038D00092FAA2F2B2FA82F2D140074A515CC84091
:1038E0000649086006480068FFF708FD0020B9E6B1
:1038F00000200240001002408666000818000020E8
:10390000100000202DE9F0410024002500270026AA
:10391000A0461848446804F00C0018B3042802D0EC
:1039200008281ED102E0DFF850801EE01348C4F3DF
:103930008341465C0F48C06A00F00F0010490D5CDF
:1039400004F4803040B12A4600230B481946FCF7A6
:103950008BFCA0FB067102E00A48A0FB0671B8468A
:1039600003E000BFDFF8208000BF00BF4046BDE895
:10397000F081000000100240001BB70066660008DE
:103980007666000800093D0000127A00F8B504468A
:103990000CB90120F8BD207800F0010000287BD090
:1039A000FA48406800F00C0004280CD0F748406842
:1039B00000F00C00082845D1F448406800F480303D
:1039C000B0F5803F3ED12020010391FAA1F1B1FA78
:1039D00081F108430121B1EB601F02D1EB4800687F
:1039E0001DE02020010391FAA1F1B1FA81F1084311
:1039F0000221B1EB601F02D1E448006A0FE02020F1
:103A0000010391FAA1F1B1FA81F108430421B1EB6C
:103A1000601F02D1DD48406801E0DC48406A202197
:103A20000A0392FAA2F2B2FA82F2114301F01F02E3
:103A30000121914008400028B1D0606800282BD1B6
:103A40000120A7E700BF6068B0F5803F06D1CF48EE
:103A5000006840F48030CD49086029E0606858B9BA
:103A6000CA48006820F48030C849086008460068E9
:103A700020F4802008601BE06068B0F5A02F0CD116
:103A8000C248006840F48020C049086008460068C9
:103A900040F4803008600BE0A1E0BC48006820F4EE
:103AA0008030BA4908600846006820F48020086029
:103AB00000BFB648C06A20F00F00A1680843B349B0
:103AC000C8626068A0B3FEF7D1FD054606E0FEF7C8
:103AD000CDFD401B642801D903205BE720200103B2
:103AE00091FAA1F1B1FA81F108430121B1EB601F14
:103AF00002D1A64800681EE02020010391FAA1F13E
:103B0000B1FA81F108430221B1EB601F02D19F4855
:103B1000006A10E02020010391FAA1F1B1FA81F1CD
:103B200008430421B1EB601F03D19848406802E0CC
:103B300010E09648406A20210A0392FAA2F2B2FAF3
:103B400082F2114301F01F02012191400840002838
:103B5000BDD044E0FEF78AFD054606E0FEF786FD8F
:103B6000401B642801D9032014E72020010391FAA7
:103B7000A1F1B1FA81F108430121B1EB601F02D13B
:103B8000824800681DE02020010391FAA1F1B1FAFA
:103B900081F108430221B1EB601F02D17B48006A2A
:103BA0000FE02020010391FAA1F1B1FA81F108435D
:103BB0000421B1EB601F02D17448406801E07348F2
:103BC000406A20210A0392FAA2F2B2FA82F2114369
:103BD00001F01F020121914008400028BED1207849
:103BE00000F0020002285CD16848406800F00C0038
:103BF00050B16648406800F00C00082852D1634874
:103C0000406800F48030E8BB2020022191FAA1F145
:103C1000B1FA81F108430121B1EB601F02D15B4889
:103C200000681DE02020022191FAA1F1B1FA81F192
:103C300008430221B1EB601F02D15448006A0FE033
:103C40002020022191FAA1F1B1FA81F10843042167
:103C5000B1EB601F02D14D48406801E04B48406A1B
:103C60002021022292FAA2F2B2FA82F2114301F06A
:103C70001F0201219140084028B12069012802D08B
:103C8000012087E60EE04148006820F0F800F822A5
:103C900092FAA2F2B2FA82F26169914008433B497A
:103CA0000860B1E0206970B3012191FAA1F0B0FA87
:103CB00080F0374A42F82010FEF7D8FC054606E0AF
:103CC000FEF7D4FC401B022801D9032062E6202025
:103CD000022191FAA1F1B1FA81F108430121B1EB7E
:103CE000601F02D1294800681EE02020022191FABD
:103CF000A1F1B1FA81F108430221B1EB601F03D1B8
:103D00002248006A10E02CE02020022191FAA1F163
:103D1000B1FA81F108430421B1EB601F02D11B48C5
:103D2000406801E01948406A2021022292FAA2F27A
:103D3000B2FA82F2114301F01F02012191400840C2
:103D40000028BDD01148006820F0F800F82292FA4F
:103D5000A2F2B2FA82F26169914008430B4908600D
:103D600052E00020012191FAA1F1B1FA81F1084A53
:103D700042F82100FEF77AFC05460BE0FEF776FCE0
:103D8000401B022806D9032004E600000010024070
:103D9000000042422020022191FAA1F1B1FA81F102
:103DA00008430121B1EB601F02D1FB4800681DE010
:103DB0002020022191FAA1F1B1FA81F108430221F8
:103DC000B1EB601F02D1F448006A0FE0202002210D
:103DD00091FAA1F1B1FA81F108430421B1EB601F1E
:103DE00002D1ED48406801E0EB48406A2021022200
:103DF00092FAA2F2B2FA82F2114301F01F020121FB
:103E0000914008400028B9D1207800F00800082827
:103E100051D1A06980B3012191FAA1F0B0FA80F0EC
:103E2000DE4A02EB8000C0F88014FEF71FFC054656
:103E300006E0FEF71BFC401B022801D90320A9E580
:103E40006020022191FAA1F1B1FA81F10843012128
:103E5000B1EB601F02D1D04800681EE06020022153
:103E600091FAA1F1B1FA81F108430221B1EB601F8F
:103E700003D1C948006A10E01EE06020022191FAD7
:103E8000A1F1B1FA81F108430421B1EB601F02D125
:103E9000C148406801E0C048406A6021022292FAAD
:103EA000A2F2B2FA82F2114301F01F020121914005
:103EB00008400028BDD04FE00020012191FAA1F177
:103EC000B1FA81F1B54A02EB8101C1F88004FEF735
:103ED000CDFB054606E0FEF7C9FB401B022801D9D1
:103EE000032057E56020022191FAA1F1B1FA81F196
:103EF00008430121B1EB601F02D1A74800681DE013
:103F00006020022191FAA1F1B1FA81F10843022166
:103F1000B1EB601F02D1A048006A0FE060200221CF
:103F200091FAA1F1B1FA81F108430421B1EB601FCC
:103F300002D19948406801E09748406A6021022216
:103F400092FAA2F2B2FA82F2114301F01F020121A9
:103F5000914008400028BED1207800F004000428D9
:103F600073D100278C48C06900F0805070B900BF41
:103F70008948C06940F080508749C8610846C069D7
:103F800000F08050009000BF00BF01278448006807
:103F900000F48070B0B98248006840F480708049B5
:103FA0000860FEF763FB054606E0FEF75FFB401B7B
:103FB000642801D90320EDE47948006800F480709A
:103FC0000028F2D000BFE068012806D17248006ADC
:103FD00040F001007049086227E0E06858B96E4877
:103FE000006A20F001006C4908620846006A20F06F
:103FF0000400086219E0E06805280BD16648006AF1
:1040000040F00400644908620846006A40F001007C
:1040100008620AE06048006A20F001005E49086218
:104020000846006A20F00400086200BFE068B8B3E8
:10403000FEF71CFB054609E0FEF718FB401B41F2AA
:104040008831884202D90320A4E48BE04020022179
:1040500091FAA1F1B1FA81F108430121B1EB601F9E
:1040600002D14D4800681EE04020022191FAA1F1E2
:10407000B1FA81F108430221B1EB601F02D1464839
:10408000006A10E04020022191FAA1F1B1FA81F119
:1040900008430421B1EB601F03D13F48406802E0B0
:1040A00010E03D48406A4021022292FAA2F2B2FAA0
:1040B00082F2114301F01F020121914008400028C3
:1040C000BAD046E0FEF7D2FA054608E0FEF7CEFA8F
:1040D000401B41F28831884201D903205AE4402034
:1040E000022191FAA1F1B1FA81F108430121B1EB6A
:1040F000601F02D1284800681DE04020022191FA8B
:10410000A1F1B1FA81F108430221B1EB601F02D1A4
:104110002148006A0FE04020022191FAA1F1B1FA92
:1041200081F108430421B1EB601F02D11A484068B5
:1041300001E01948406A4021022292FAA2F2B2FA42
:1041400082F2114301F01F02012191400840002832
:10415000BCD1012F05D11048C06920F080500E4914
:10416000C86100BFE069002874D00B48406800F0C7
:104170000C0008286FD0E06902286DD100204FF0B4
:10418000807191FAA1F1B1FA81F1044A42F821005B
:10419000FEF76CFA05460CE00010024000004242B7
:1041A00000700040FEF762FA401B022801D903208C
:1041B00047E42020010591FAA1F1B1FA81F1084309
:1041C0000121B1EB601F02D1774800681DE020207B
:1041D000010591FAA1F1B1FA81F108430221B1EB95
:1041E000601F02D17048006A0FE02020010591FA9B
:1041F000A1F1B1FA81F108430421B1EB601F02D1B2
:104200006948406801E06848406A20210A0592FA3E
:10421000A2F2B2FA82F2114301F01F020121914091
:1042200008400028BED1D4E9081008435E49496817
:1042300021F4741108435C4948600120010691FA99
:10424000A1F1B1FA81F1594A42F82100FEF70EFAC4
:10425000054609E0A5E092E041E0FEF707FA401BC1
:10426000022801D9032038E42020010591FAA1F1A8
:10427000B1FA81F108430121B1EB601F02D14A4834
:1042800000681DE02020010591FAA1F1B1FA81F149
:1042900008430221B1EB601F02D14348006A0FE0DE
:1042A0002020010591FAA1F1B1FA81F1084304211E
:1042B000B1EB601F02D13C48406801E03A48406AD7
:1042C00020210A0592FAA2F2B2FA82F2114301F019
:1042D0001F020121914008400028BED061E000206B
:1042E0004FF0807191FAA1F1B1FA81F12F4A42F8B1
:1042F0002100FEF7BBF9054606E0FEF7B7F9401BC3
:10430000022801D903202FE42020010591FAA1F110
:10431000B1FA81F108430121B1EB601F02D12248BB
:1043200000681DE02020010591FAA1F1B1FA81F1A8
:1043300008430221B1EB601F02D11B48006A0FE065
:104340002020010591FAA1F1B1FA81F1084304217D
:10435000B1EB601F02D11448406801E01248406A86
:1043600020210A0592FAA2F2B2FA82F2114301F078
:104370001F020121914008400028BED111E0E069F0
:10438000012800D17DE40848466806F48031206A9F
:10439000814204D106F47011606A814201D001208B
:1043A0006FE400206DE40000001002400000424273
:1043B00070B504462546681EB0F1807F01D3012008
:1043C0000FE0681E4FF0E02148610F214FF0FF30F1
:1043D00001F098FF00204FF0E0218861072008617C
:1043E000002070BD704770477047000030B502462E
:1043F0000B4600BF92F83C00012801D1022030BDDD
:10440000012082F83C0000BF022082F83D001068C5
:10441000416810688468174D1068A84203D121F4E0
:1044200070015868014321F0700118680143106859
:104430004160104D1068A8420BD01068B0F1804F59
:1044400007D00D4D1068A84203D00C4D1068A8424B
:1044500005D124F08004986804431068846001202A
:1044600082F83D0000BF002082F83C0000BF00BF82
:10447000C5E70000002C014000040040004001405E
:1044800010B504460CB9012010BD94F83D0028B9C0
:10449000002084F83C00204600F02AF8022084F82E
:1044A0003D00211D206801F015FE012084F8480020
:1044B00000BF84F83E0001213F20015540200155F6
:1044C00041200155422001554320015500BF00BF46
:1044D000012084F84400452001554620015547201D
:1044E000015500BF012084F83D000020CCE700000A
:1044F00038B5044628492068884216D100BF2748AD
:10450000C06940F002002549C8610846C06900F052
:104510000200009000BF00BF002202211D20FEF714
:1045200043FF1D20FEF730FF34E01D49206888421C
:1045300016D100BF1948C06940F010001749C86182
:104540000846C06900F01000009000BF00BF0022C4
:1045500011463620FEF728FF3620FEF715FF19E03A
:1045600010492068884215D100BF0C48C06940F04E
:1045700020000A49C8610846C06900F02000009088
:1045800000BF00BF002211463720FEF70DFF372085
:10459000FEF7FAFE38BD00000004004000100240A3
:1045A0000010004000140040014691F83D00012831
:1045B00001D001207047022081F83D000868C068E2
:1045C00040F001000B68D860144B086898420BD08B
:1045D0000868B0F1804F07D0114B0868984203D0AB
:1045E000104B0868984210D1086880680E4B00EAAA
:1045F0000302062A0FD0B2F5803F0CD0086800688D
:1046000040F001000B68186005E00868006840F0A1
:1046100001000B6818600020CCE70000002C01406E
:104620000004004000400140070001002DE9F04176
:1046300004460D46002700BF94F83C00012802D133
:104640000220BDE8F081012084F83C0000BF022078
:1046500084F83D00206886683748064026F47F4687
:10466000206886602868502833D00CDC202850D081
:1046700004DC00284BD0102851D149E0302849D023
:1046800040284CD139E060282DD0702807D0B0F5F3
:10469000805F03D0B0F5005F41D10DE041E0D5E986
:1046A00002136A68206801F067FD2068866846F09A
:1046B00077062068866034E0D5E902136A682068CE
:1046C00001F05AFD2068806840F4804021688860CD
:1046D00027E0EA686968206801F0BEFD5021206883
:1046E00001F055FD1DE0EA686968206801F0C7FD2A
:1046F0006021206801F04BFD13E0EA6869682068DA
:1047000001F0AAFD4021206801F041FD09E000BF51
:1047100000BF00BF2968206801F039FD01E00127D2
:1047200000BF00BF012084F83D0000BF002084F8D6
:104730003C0000BF384684E788FFFEFF704770B535
:1047400004462068C5682068066906F00200022851
:1047500019D105F00200022815D1401F2168086117
:10476000012020772068806900F0030018B12046FE
:10477000FFF7E4FF05E0204600F0A7F8204600F030
:10478000A5F80020207706F00400042819D105F0D0
:104790000400042815D1C043216808610220207755
:1047A0002068806900F4407018B12046FFF7C6FF0A
:1047B00005E0204600F089F8204600F087F8002048
:1047C000207706F00800082819D105F0080008280D
:1047D00015D1C04321680861042020772068C06992
:1047E00000F0030018B12046FFF7A8FF05E02046BF
:1047F00000F06BF8204600F069F80020207706F002
:104800001000102819D105F01000102815D1C04350
:1048100021680861082020772068C06900F4407092
:1048200018B12046FFF78AFF05E0204600F04DF85A
:10483000204600F04BF80020207706F0010048B138
:1048400005F0010030B16FF00100216808612046D9
:1048500000F03EF806F08000802809D105F08000C5
:10486000802805D1C043216808612046FFF7BBFDC1
:1048700006F48070B0F5807F0AD105F080008028B2
:1048800006D16FF48070216808612046FFF7AAFD09
:1048900006F04000402809D105F04000402805D12D
:1048A000C04321680861204600F06EF806F0200041
:1048B000202809D105F02000202805D1C043216817
:1048C00008612046FFF790FD70BD704770470000FB
:1048D00010B504460B48844209D10B480178DFED3E
:1048E0000B0A0B4890ED000A0A4801F025FB0A4824
:1048F000844205D1FBF794FDFCF790F800F0E2FD4F
:1049000010BD000080030020DD000020000000003A
:1049100034000020280200201804002070B504464E
:104920000D4600BF94F83C00012801D1022070BD63
:10493000012084F83C0000BF022084F83D00294695
:10494000204601F02DFC48B1012084F83D0000BF55
:10495000002084F83C0000BF0120E8E72068C06820
:1049600020F040002168C8602068C06820F48040C2
:104970002168C860012084F83D0000BF002084F851
:104980003C0000BF00BFD2E77047000010B5002117
:104990000148FDF787FF10BD5002002006293AD2DA
:1049A000DFE801F00C151E2730030268D2F88423DB
:1049B00042F001030268C2F884332DE00268D2F8A5
:1049C000842342F002030268C2F8843324E00268C0
:1049D000D2F8842342F004030268C2F884331BE057
:1049E0000268D2F8842342F008030268C2F88433D4
:1049F00012E00268D2F8842342F010030268C2F881
:104A0000843309E00268D2F8842342F0200302686C
:104A1000C2F8843300E000BF00BF704770B50446A1
:104A20002068D0F888532068D0F8906305F0010022
:104A300048B106F0010030B101212068C0F88C13A4
:104A40002046FDF72AFF05F0020048B106F00200FB
:104A500030B102212068C0F88C132046FDF71EFFFC
:104A600005F0040048B106F0040030B104212068CC
:104A7000C0F88C132046FDF712FF05F0080048B17E
:104A800006F0080030B108212068C0F88C132046D9
:104A9000FDF706FF05F0100048B106F0100030B138
:104AA00010212068C0F88C132046FDF7FAFE05F0AF
:104AB000200048B106F0200030B120212068C0F865
:104AC0008C132046FEF704F870BD10B503681A6811
:104AD00022F007028B681A4322F01802CB681A43AF
:104AE00003681A600B68046863614B680468A3611B
:104AF00010BD10B50246146820681468D4F8A033BD
:104B000020F020004C69204320F400608C69204391
:104B100020F48060CC69204320F0C0600C6A204300
:104B200020F000604C6A204320F040408C6A40EA4C
:104B3000840020F000500C6B204323F48033CC6AB7
:104B40002343146820601468C4F8A03310BD2DE915
:104B5000F04104462068D0F888732068D0F890832C
:104B6000206845682068C66807F4803090B108F472
:104B7000803078B14FF480312068C0F88C13012068
:104B800084F8C10000BF002084F8C00000BF2046A8
:104B9000FDF7EBFD07F4003050B108F4003038B1F8
:104BA0004FF400312068C0F88C132046FDF7D5FD86
:104BB00005F0010048B106F0010030B10120216884
:104BC000886005212046FDF7CBFD05F0020048B1C5
:104BD00006F0020030B102202168886005212046DD
:104BE000FDF7BFFD05F0040048B106F0040030B148
:104BF00004202168886005212046FDF7B3FD05F0FB
:104C0000080048B106F0080030B10820216888602B
:104C100005212046FDF7A7FD05F0100048B106F07C
:104C2000100030B110202168886005212046FDF772
:104C30004DFF05F0200040B106F0200028B12020F3
:104C4000216888602046FDF742FF05F0400048B12A
:104C500006F0400030B140202168886005212046E0
:104C6000FDF733FFBDE8F081F0B515460024076875
:104C7000803707EBC1177A6E0768803707EBC117DB
:104C8000BE6B202D2FD00CDC042D16D004DC012DA2
:104C900012D0022D3BD124E0082D23D0102D36D187
:104CA0000CE0402D0BD0802D1ED0B5F5807F07D0B5
:104CB000B5F5007F2BD118E000BF00BF00BF00BFDB
:104CC000D3F804C00768803707EBC117C7F83CC0AA
:104CD000D3F808C00768803707EBC117C7F840C092
:104CE00016E000BF00BF00BF00BFD3F804C00768D4
:104CF000803707EBC117C7F844C0D3F808C007686E
:104D0000803707EBC117C7F848C0102400E000BF88
:104D100000BFFE27A740BA431F68A7403A43DF6899
:104D2000A7403A431F69A7403A435F69A7403A4307
:104D30009F69A7403A431F69082F08D106F40077FE
:104D40002FB906F0007717B9DF69A7403A43076823
:104D5000803707EBC1177A66F0BD2DE9F0410446B4
:104D60000D462068803000EBC51046682068803012
:104D700000EBC510C76806F0010060B107F0010044
:104D800048B101212068803000EBC51081602946C0
:104D90002046FDF7E5FC06F0020060B107F00200D6
:104DA00048B102212068803000EBC510816029469F
:104DB0002046FDF7D6FC06F0040060B107F00400C1
:104DC00048B104212068803000EBC510816029467D
:104DD0002046FDF7C7FC06F0080060B107F00800A8
:104DE00048B108212068803000EBC5108160294659
:104DF0002046FDF7B8FC06F0100060B107F0100087
:104E000048B110212068803000EBC5108160294630
:104E10002046FDF75BFE06F0400060B107F0400061
:104E200048B140212068803000EBC51081602946E0
:104E30002046FDF74AFE06F0800060B107F08000D2
:104E400048B180212068803000EBC5108160294680
:104E50002046FDF783FC06F4807068B107F480708B
:104E600050B14FF480712068803000EBC510816034
:104E700029462046FDF773FC06F4007068B107F47C
:104E8000007050B14FF400712068803000EBC51005
:104E9000816029462046FDF7F0FD06F4806068B188
:104EA00007F4806050B14FF480612068803000EBDF
:104EB000C510816029462046FDF7DEFD06F400603E
:104EC00068B107F4006050B14FF400612068803091
:104ED00000EBC510816029462046FDF7D0FD06F4A1
:104EE000805068B107F4805050B14FF48051206871
:104EF000803000EBC510816029462046FDF7BEFDDD
:104F000006F4005068B107F4005050B14FF400515E
:104F10002068803000EBC510816029462046FDF7EF
:104F200023FC06F4804068B107F4804050B14FF490
:104F300080412068803000EBC51081602946204602
:104F4000FDF7AAFCBDE8F08130B50468803404EBBD
:104F5000C114236823F007039468234323F0180344
:104F6000D46823430468803404EBC11423601568BB
:104F70000468803404EBC1146561556804688034AA
:104F800004EBC114A56130BD2DE9F0410346D3F80F
:104F900000C00CF1800C0CEBC11CDCF800C02CF044
:104FA0007048D3F800C00CF1800C0CEBC11CCCF89D
:104FB0000080D3F800C00CF1800C0CEBC11CDCF8B5
:104FC0000000D3F800C00CF1800C0CEBC11CDCF825
:104FD0006850D3F800C00CF1800C0CEBC11CDCF85D
:104FE0006460D3F800C0DCF8A04320F02000D2F8C1
:104FF00014C04CEA000020F40060D2F818C04CEA5B
:10500000000020F48060D2F81CC04CEA000020F0C0
:10501000C060D2F820C04CEA000020F00060D2F856
:1050200024C04CEA000020F07040D2F828C04CEABE
:10503000000020F40030D2F830C0BCF1005F01D194
:1050400040F4003020F04000D2F834C04CEA0000B8
:1050500020F48020D2F850C04CEA000020F0FC7010
:10506000D2F848C04CEA000025F01F0592F838C07D
:105070000CF01F0C4CEA050525F00045D2F83CC0A9
:105080004CEA0505D2F834C0BCF1000F05D126F476
:105090008076D2F840C04CEA0606D2F844C0BCF58F
:1050A000606F04D0D2F844C0BCF5F05F04D1D2F8F0
:1050B00034C0BCF1400F05D126F4F056D2F844C0FC
:1050C0004CEA0606D76C052927D2DFE801F0030A6F
:1050D00011181F0024F40034D2F82CC044EA4C0408
:1050E0001CE024F48024D2F82CC044EA8C0415E09F
:1050F00024F40024D2F82CC044EACC040EE024F4BA
:105100008014D2F82CC044EA0C1407E024F40014F4
:10511000D2F82CC044EA4C1400E000BF00BFD3F822
:1051200000C00CF1800C0CEBC11CCCF80000D3F8D3
:1051300000C00CF1800C0CEBC11CCCF86850D3F80B
:1051400000C00CF1800C0CEBC11CCCF86460D3F8EF
:1051500000C00CF1800C0CEBC11CCCF85470D3F8DF
:1051600000C0CCF8A043BDE8F08100BFFEE70168B5
:105170008969C1F3400111B100210268916201689F
:10518000896901F0010129B90168896941F00101CA
:1051900002689161704700002DE9F74F04460E4602
:1051A00000272068D0F818800025DDF8089008F066
:1051B0001000102845D12168C86134E0701C90B3FC
:1051C000FDF754FAA0EB0900B04200D85EBB20689E
:1051D000406800F4804A94F842B020688069C0F3C7
:1051E000C03070B1BAF5804F0BD0BBF1200F08D0A2
:1051F0002068406840F4804021684860FDF736FA36
:10520000814609E0FDF732FAA0EB0900192803D91D
:1052100045F02005012705E020688069C0F34010B3
:105220000028EFD000BF20688069C0F3401008B9A3
:10523000002FC3D017B920202168C86145F00405AC
:1052400001272068D0F8188008F48070B0F5807FBE
:1052500006D145F001054FF480702168C86101272F
:1052600008F48060B0F5806F06D145F008054FF472
:1052700080602168C861012708F40070B0F5007FE4
:1052800006D145F002054FF400702168C86101277E
:10529000AFB12046FFF76BFF20684068094908401E
:1052A00021684860606C28436064202084F84100D5
:1052B000002084F8420000BF84F8400000BF384658
:1052C000BDE8FE8F00E800FE2DE9F843044689465C
:1052D00015461E46DDE908781948F2B2C302494670
:1052E0000090204600F02EF842463946204600F055
:1052F000B6F810B10120BDE8F883012E03D1E8B261
:10530000216888620EE0C5F3072021688862424662
:105310003946204600F0A3F808B10120EBE7E8B2D7
:10532000216888623B46002280212046CDF800801B
:1053300000F024F808B10120DDE70020DBE70000E1
:1053400000200080F0B5059CC1F309064FF47F07EB
:1053500007EA02473E431E43264326F000450668FF
:1053600076684FF4806707EA545767F0FC2747F4E4
:10537000C047BE432E4307687E60F0BD2DE9F04173
:1053800004460D4617461E46DDF818802BE04246BF
:1053900031462046FFF700FF10B10120BDE8F08143
:1053A000701C00B3FDF762F9A0EB0800B04200D812
:1053B000CEB9206880692840A84201D1012000E0D0
:1053C0000020B8420FD1606C40F0200060642020C3
:1053D00084F84100002084F8420000BF84F84000B7
:1053E00000BF0120DAE7206880692840A84201D187
:1053F000012000E00020B842C9D00020CEE770B5FF
:1054000004460D46164622E0324629462046FFF75E
:10541000C3FE08B1012070BDFDF728F9801BA8422A
:1054200000D8A5B920688069C0F3401078B9606CD5
:1054300040F020006064202084F84100002084F8BF
:10544000420000BF84F8400000BF0120E3E720686D
:105450008069C0F340100028D6D00020DBE770B58B
:1054600004460D46164624E0324629462046FFF7FC
:1054700093FE08B1012070BD681CD0B1FDF7F6F8AD
:10548000801BA84200D8A5B920688069C0F34000FD
:1054900078B9606C40F020006064202084F84100FE
:1054A000002084F8420000BF84F8400000BF0120C3
:1054B000E1E720688069C0F340000028D4D00020D4
:1054C000D9E7000010B532480068012809D1002250
:1054D00010213048FDF7C4F8012220212D48FDF7A6
:1054E000BFF82B48006848B9012210212948FDF770
:1054F000B7F8002220212748FDF7B2F826480078A7
:1055000003280FD1002204212248FDF7A9F8012227
:10551000D1022048FDF7A4F800224FF480611D4815
:10552000FDF79EF81C48007880B901220421194833
:10553000FDF796F800224FF400611648FDF790F849
:1055400000224FF480611348FDF78AF81248007872
:1055500009280FD1002204210E48FDF781F800220E
:105560004FF400610B48FDF77BF8012291020948D6
:10557000FDF776F809480068642807D1002007493C
:1055800008604FF480510348FDF760F810BD00003B
:10559000C000002000040048DD000020C4000020FE
:1055A00000B589B000200690079008901821684641
:1055B000FAF7D1FE4FF0A0402F4908604FF4403079
:1055C000486000212C488160012101610021417661
:1055D00080F820104FF48061C1624FF4E071816265
:1055E0000021C1600421C161012180F8301008212F
:1055F0004161002101764163FBF78CFF08B1FBF7A5
:10560000D6FC0020069006A91B48FBF7D3FC08B186
:10561000FBF7CDFC012000900190002003900220B8
:10562000029000200490059069461348FBF760FD46
:1056300008B1FBF7BCFC02200090019069460E48BF
:10564000FBF756FD08B1FBF7B2FC03200090019078
:1056500069460948FBF74CFD08B1FBF7A8FC04209C
:105660000090019069460448FBF742FD08B1FBF742
:105670009EFC09B000BD00000001002000B587B00D
:10568000182101A8FAF767FE2148224908604FF463
:105690004030486000211F488160012101610021E4
:1056A000417680F820104FF48061C1624FF4E071C0
:1056B00081620021C1600221C161012180F83010A6
:1056C00008214161002101764163FBF723FF08B106
:1056D000FBF76DFC01200190029000200490022055
:1056E000039000200590069001A90A48FBF700FDF1
:1056F00008B1FBF75CFC02200190029001A905486B
:10570000FBF7F6FC08B1FBF752FC07B000BD000048
:10571000000100505001002010B50E480E490860ED
:105720000220486000210C488160C1604FF40021D4
:1057300001614FF4E00141610021017641768176FB
:10574000C17601774177FCF7AAFC08B1FBF72FFC83
:1057500010BD0000006400402802002008B500BF12
:105760000648406940F00100044948610846406924
:1057700000F00100009000BF00BF08BD0010024013
:1057800000B587B0142102A8FAF7E5FD00BF1D4857
:10579000406940F480001B4948610846406900F4B4
:1057A0008000019000BF00BF00BF0846406940F480
:1057B000003048610846406900F40030019000BFA5
:1057C00000BF00BF0846406940F480204861084699
:1057D000406900F48020019000BF00BF002241F624
:1057E00034410948FCF73CFF41F634400290012067
:1057F000039000200490059002A90348FCF74EFE98
:1058000007B000BD001002400004004800B5AFB072
:1058100000202D902E9029902A902B902C9054218E
:1058200014A8FAF798FD00201190129013902421EB
:1058300008A8FAF790FD20216846FAF78CFDA648E3
:10584000A6490860002048600021A4488160FDF757
:105850003DF808B1FBF7ABFB0C21A048FCF786FF35
:1058600008B1FBF7A4FB0A219C48FDF709F908B130
:10587000FBF79DFB00202D904FF480602E902DAA09
:1058800001219648FCF7F8FE08B1FBF790FB4FF4B6
:10589000C840299000202A902B9008202C9029AAFB
:1058A00005218E48FDF715F908B1FBF780FB0020B4
:1058B00014901590169017900120189000201990C0
:1058C0001A901B901C904FF000601D9000201E90BD
:1058D0001F904FF00050209014AA05217F48FDF73B
:1058E00099FA08B1FBF763FB4FF44850119011ABE4
:1058F000012205217948FDF709F908B1FBF757FBAB
:1059000011AB022205217548FDF700F908B1FBF73C
:105910004EFB11AB042205217048FDF7F7F808B1E2
:10592000FBF745FB11AB082205216C48FDF7EEF8AB
:1059300008B1FBF73CFB00202A9029AA0021674808
:10594000FDF7C7F808B1FBF732FB00201490159063
:105950002190229023904FF4807024900020259075
:105960002690102027900020289014AA00215B4840
:10597000FDF750FA08B1FBF71AFB0020279014AA94
:1059800001215648FDF746FA08B1FBF710FB44F633
:105990002060119011AB012200215048FDF7B6F8AC
:1059A00008B1FBF704FB4FF448501190002012900F
:1059B000139011AB022200214848FDF7A7F808B167
:1059C000FBF7F5FA42F21070119011AB042200219E
:1059D0004248FDF79BF808B1FBF7E9FA4FF4806005
:1059E00008900A20099000200A900B900C900A2041
:1059F0000D9000200E900F90109008AA00213748BB
:105A0000FCF7F4FE08B1FBF7D2FA08AA01213348EB
:105A1000FCF7ECFE08B1FBF7CAFA002000904FF447
:105A20008070019040000290002003900490059047
:105A3000069007906B46012200212848FDF780F967
:105A400008B1FBF7B4FA4FF4806001904000029077
:105A50006B46042201212148FDF772F908B1FBF7DA
:105A6000A6FA0020019002906B46022200211B48FA
:105A7000FDF766F908B1FBF79AFA6B460822012197
:105A80001648FDF75DF908B1FBF791FA29AA012143
:105A90001248FDF71EF808B1FBF789FA44F62060BA
:105AA000119011AB012211460C48FDF72FF808B1F7
:105AB000FBF77DFA42F21070119011AB0422012124
:105AC0000648FDF723F808B1FBF771FA0348FCF725
:105AD000A3FF2FB000BD0000007401405002002061
